{
  "contractName": "ProofOfExistence2",
  "abi": [
    {
      "inputs": [
        {
          "internalType": "bytes32",
          "name": "proof",
          "type": "bytes32"
        }
      ],
      "name": "storeProof",
      "outputs": [],
      "stateMutability": "nonpayable",
      "type": "function"
    },
    {
      "inputs": [
        {
          "internalType": "string",
          "name": "document",
          "type": "string"
        }
      ],
      "name": "notarize",
      "outputs": [],
      "stateMutability": "nonpayable",
      "type": "function"
    },
    {
      "inputs": [
        {
          "internalType": "string",
          "name": "document",
          "type": "string"
        }
      ],
      "name": "proofFor",
      "outputs": [
        {
          "internalType": "bytes32",
          "name": "",
          "type": "bytes32"
        }
      ],
      "stateMutability": "pure",
      "type": "function"
    },
    {
      "inputs": [
        {
          "internalType": "string",
          "name": "document",
          "type": "string"
        }
      ],
      "name": "checkDocument",
      "outputs": [
        {
          "internalType": "bool",
          "name": "",
          "type": "bool"
        }
      ],
      "stateMutability": "view",
      "type": "function"
    }
  ],
  "bytecode": "0x608060405234801561001057600080fd5b50610799806100206000396000f3fe608060405234801561001057600080fd5b506004361061004c5760003560e01c806353fb9233146100515780637183616c146100815780638952877b1461009d578063f6c1acdf146100b9575b600080fd5b61006b600480360381019061006691906103c8565b6100e9565b604051610078919061042c565b60405180910390f35b61009b600480360381019061009691906104a7565b610108565b005b6100b760048036038101906100b2919061052a565b610167565b005b6100d360048036038101906100ce91906103c8565b610193565b6040516100e09190610566565b60405180910390f35b6000806100f583610193565b90506101008161020b565b915050919050565b600061015783838080601f016020809104026020016040519081016040528093929190818152602001838380828437600081840152601f19601f82011690508083019250505050505050610193565b905061016281610167565b505050565b600081908060018154018082558091505060019003906000526020600020016000909190919091505550565b60006002826040516020016101a891906105fb565b6040516020818303038152906040526040516101c49190610659565b602060405180830381855afa1580156101e1573d6000803e3d6000fd5b5050506040513d601f19601f820116820180604052508101906102049190610685565b9050919050565b600080600090505b600080549050811015610263578260008281548110610235576102346106b2565b5b90600052602060002001541415610250576001915050610269565b808061025b9061071a565b915050610213565b50600090505b919050565b6000604051905090565b600080fd5b600080fd5b600080fd5b600080fd5b6000601f19601f8301169050919050565b7f4e487b7100000000000000000000000000000000000000000000000000000000600052604160045260246000fd5b6102d58261028c565b810181811067ffffffffffffffff821117156102f4576102f361029d565b5b80604052505050565b600061030761026e565b905061031382826102cc565b919050565b600067ffffffffffffffff8211156103335761033261029d565b5b61033c8261028c565b9050602081019050919050565b82818337600083830152505050565b600061036b61036684610318565b6102fd565b90508281526020810184848401111561038757610386610287565b5b610392848285610349565b509392505050565b600082601f8301126103af576103ae610282565b5b81356103bf848260208601610358565b91505092915050565b6000602082840312156103de576103dd610278565b5b600082013567ffffffffffffffff8111156103fc576103fb61027d565b5b6104088482850161039a565b91505092915050565b60008115159050919050565b61042681610411565b82525050565b6000602082019050610441600083018461041d565b92915050565b600080fd5b600080fd5b60008083601f84011261046757610466610282565b5b8235905067ffffffffffffffff81111561048457610483610447565b5b6020830191508360018202830111156104a05761049f61044c565b5b9250929050565b600080602083850312156104be576104bd610278565b5b600083013567ffffffffffffffff8111156104dc576104db61027d565b5b6104e885828601610451565b92509250509250929050565b6000819050919050565b610507816104f4565b811461051257600080fd5b50565b600081359050610524816104fe565b92915050565b6000602082840312156105405761053f610278565b5b600061054e84828501610515565b91505092915050565b610560816104f4565b82525050565b600060208201905061057b6000830184610557565b92915050565b600081519050919050565b600081905092915050565b60005b838110156105b557808201518184015260208101905061059a565b838111156105c4576000848401525b50505050565b60006105d582610581565b6105df818561058c565b93506105ef818560208601610597565b80840191505092915050565b600061060782846105ca565b915081905092915050565b600081519050919050565b600081905092915050565b600061063382610612565b61063d818561061d565b935061064d818560208601610597565b80840191505092915050565b60006106658284610628565b915081905092915050565b60008151905061067f816104fe565b92915050565b60006020828403121561069b5761069a610278565b5b60006106a984828501610670565b91505092915050565b7f4e487b7100000000000000000000000000000000000000000000000000000000600052603260045260246000fd5b7f4e487b7100000000000000000000000000000000000000000000000000000000600052601160045260246000fd5b6000819050919050565b600061072582610710565b91507fffffffffffffffffffffffffffffffffffffffffffffffffffffffffffffffff821415610758576107576106e1565b5b60018201905091905056fea2646970667358221220696895c1fd42f143732d2998691d49a27207e093d5b50e59deeab16a716166d264736f6c634300080b0033",
  "immutableReferences": {},
  "source": "// SPDX-License-Identifier: MIT\npragma solidity >=0.4.22 <0.9.0;\n\ncontract ProofOfExistence2 {\n  \n  // state\n  bytes32[] private proofs;\n\n  // store a proof of existence in the contract state\n  // *transactional function*\n  function storeProof(bytes32 proof) public {\n    proofs.push(proof);\n  }\n\n  // calculate and store the proof for a document\n  // *transactional function*\n  function notarize(string calldata document) external {\n    bytes32 proof = proofFor(document);\n    storeProof(proof);\n  }\n\n  // helper function to get a document's sha256\n  // *read-only function*\n  function proofFor(string memory document) pure public returns (bytes32) {\n    return sha256(abi.encodePacked(document));\n  }\n\n  // check if a document has been notarized\n  // *read-only function*\n  function checkDocument(string memory document) public view returns (bool) {\n    bytes32 proof = proofFor(document);\n    return hasProof(proof);\n  }\n\n  // returns true if proof is stored\n  // *read-only function*\n  function hasProof(bytes32 proof) internal view returns (bool) {\n    for (uint256 i = 0; i < proofs.length; i++) {\n      if (proofs[i] == proof) {\n        return true;\n      }\n    }\n\n    return false;\n  }\n}\n",
  "sourcePath": "/home/danseol/Documents/Github/ethDApps/proof-of-existence/contracts/ProofOfExistence2.sol",
  "compiler": {
    "name": "solc",
    "version": "0.8.11+commit.d7f03943.Emscripten.clang"
  },
  "schemaVersion": "3.4.4",
  "updatedAt": "2022-01-26T01:22:44.334Z",
  "devdoc": {
    "kind": "dev",
    "methods": {},
    "version": 1
  },
  "userdoc": {
    "kind": "user",
    "methods": {},
    "version": 1
  }
}