{
  "contractName": "ProofOfExistence3",
  "abi": [
    {
      "inputs": [
        {
          "internalType": "bytes32",
          "name": "proof",
          "type": "bytes32"
        }
      ],
      "name": "storeProof",
      "outputs": [],
      "stateMutability": "nonpayable",
      "type": "function"
    },
    {
      "inputs": [
        {
          "internalType": "string",
          "name": "document",
          "type": "string"
        }
      ],
      "name": "notarize",
      "outputs": [],
      "stateMutability": "nonpayable",
      "type": "function"
    },
    {
      "inputs": [
        {
          "internalType": "string",
          "name": "document",
          "type": "string"
        }
      ],
      "name": "proofFor",
      "outputs": [
        {
          "internalType": "bytes32",
          "name": "",
          "type": "bytes32"
        }
      ],
      "stateMutability": "pure",
      "type": "function"
    },
    {
      "inputs": [
        {
          "internalType": "string",
          "name": "document",
          "type": "string"
        }
      ],
      "name": "checkDocument",
      "outputs": [
        {
          "internalType": "bool",
          "name": "",
          "type": "bool"
        }
      ],
      "stateMutability": "view",
      "type": "function"
    }
  ],
  "bytecode": "0x608060405234801561001057600080fd5b50610518806100206000396000f3fe608060405234801561001057600080fd5b506004361061004c5760003560e01c806353fb9233146100515780637183616c146100815780638952877b1461009d578063f6c1acdf146100b9575b600080fd5b61006b60048036038101906100669190610329565b6100e9565b604051610078919061038d565b60405180910390f35b61009b60048036038101906100969190610408565b610108565b005b6100b760048036038101906100b2919061048b565b610167565b005b6100d360048036038101906100ce9190610329565b610195565b6040516100e091906104c7565b60405180910390f35b6000806100f583610195565b9050610100816101a6565b915050919050565b600061015783838080601f016020809104026020016040519081016040528093929190818152602001838380828437600081840152601f19601f82011690508083019250505050505050610195565b905061016281610167565b505050565b600160008083815260200190815260200160002060006101000a81548160ff02191690831515021790555050565b600081805190602001209050919050565b600080600083815260200190815260200160002060009054906101000a900460ff169050919050565b6000604051905090565b600080fd5b600080fd5b600080fd5b600080fd5b6000601f19601f8301169050919050565b7f4e487b7100000000000000000000000000000000000000000000000000000000600052604160045260246000fd5b610236826101ed565b810181811067ffffffffffffffff82111715610255576102546101fe565b5b80604052505050565b60006102686101cf565b9050610274828261022d565b919050565b600067ffffffffffffffff821115610294576102936101fe565b5b61029d826101ed565b9050602081019050919050565b82818337600083830152505050565b60006102cc6102c784610279565b61025e565b9050828152602081018484840111156102e8576102e76101e8565b5b6102f38482856102aa565b509392505050565b600082601f8301126103105761030f6101e3565b5b81356103208482602086016102b9565b91505092915050565b60006020828403121561033f5761033e6101d9565b5b600082013567ffffffffffffffff81111561035d5761035c6101de565b5b610369848285016102fb565b91505092915050565b60008115159050919050565b61038781610372565b82525050565b60006020820190506103a2600083018461037e565b92915050565b600080fd5b600080fd5b60008083601f8401126103c8576103c76101e3565b5b8235905067ffffffffffffffff8111156103e5576103e46103a8565b5b602083019150836001820283011115610401576104006103ad565b5b9250929050565b6000806020838503121561041f5761041e6101d9565b5b600083013567ffffffffffffffff81111561043d5761043c6101de565b5b610449858286016103b2565b92509250509250929050565b6000819050919050565b61046881610455565b811461047357600080fd5b50565b6000813590506104858161045f565b92915050565b6000602082840312156104a1576104a06101d9565b5b60006104af84828501610476565b91505092915050565b6104c181610455565b82525050565b60006020820190506104dc60008301846104b8565b9291505056fea2646970667358221220d3ccd1daec31afb4d42fd1df8f7eeb045bee68b10b457d45e04c1e66c3649b6364736f6c634300080b0033",
  "immutableReferences": {},
  "source": "// SPDX-License-Identifier: MIT\npragma solidity >=0.4.22 <0.9.0;\n\ncontract ProofOfExistence3 {\n  // state\n  mapping (bytes32 => bool) private proofs;\n\n  // store a proof of existence in the contract state\n  // *transactional function*\n  function storeProof(bytes32 proof) public {\n    proofs[proof] = true;\n  }\n\n  // calculate and store the proof for a document\n  // *transactional function*\n  function notarize(string calldata document) external {\n    bytes32 proof = proofFor(document);\n    storeProof(proof);\n  }\n\n  // helper function to get a document's sha256\n  // *read-only function*\n  function proofFor(string memory document) pure public returns (bytes32) {\n    return keccak256(bytes(document));\n  }\n\n  // check if a document has been notarized\n  // *read-only function*\n  function checkDocument(string memory document) public view returns (bool) {\n    bytes32 proof = proofFor(document);\n    return hasProof(proof);\n  }\n\n  // returns true if proof is stored\n  // *read-only function*\n  function hasProof(bytes32 proof) internal view returns (bool) {\n    return proofs[proof];\n  }\n}\n",
  "sourcePath": "/home/danseol/Documents/Github/ethDApps/proof-of-existence/contracts/ProofOfExistence3.sol",
  "compiler": {
    "name": "solc",
    "version": "0.8.11+commit.d7f03943.Emscripten.clang"
  },
  "schemaVersion": "3.4.4",
  "updatedAt": "2022-01-26T01:22:44.339Z",
  "devdoc": {
    "kind": "dev",
    "methods": {},
    "version": 1
  },
  "userdoc": {
    "kind": "user",
    "methods": {},
    "version": 1
  }
}